:100000000C942A000C9447000C9447000C94470071
:100010000C9447000C9447000C9447000C94470044
:100020000C9447000C9447000C9447000C94470034
:100030000C9447000C9447000C9447000C94470024
:100040000C9447000C9447000C9447000C94470014
:100050000C94470011241FBECFE5D8E0DEBFCDBF12
:1000600010E0A0E6B0E0E8EDFFE102C005900D92DF
:10007000A43BB107D9F710E0A4EBB0E001C01D929A
:10008000A63BB107E1F70E94D50E0C94EA0F0C9441
:100090000000EF92FF920F931F937B018C0120E0F1
:1000A00030E040E05FE40E94490388238CF0C801FF
:1000B000B70120E030E040E05FE40E94C1010E940F
:1000C000A9039B01AC01205030404040504806C07D
:1000D000C801B7010E94A9039B01AC01B901CA0183
:1000E0001F910F91FF90EF900895A0E0B0E0EBE733
:1000F000F0E00C94B30FDC012B01FA019C919230DB
:1001000008F439C1EB018881823008F433C194309E
:1001100069F4843009F02FC111969C91119789815F
:10012000981709F428C1AAE9B0E025C1843009F480
:1001300021C18230A9F4923009F01DC19A01AD01AC
:1001400088E0EA010990AE01E90109929E0181501F
:10015000C1F7E201898111969C918923818308C1AD
:10016000923009F407C112962D903C901397EB0141
:100170008A819B811496AD90BD90CD90DC901797AD
:10018000EC80FD800E811F819101281B390BB90184
:1001900037FF04C066277727621B730B6032710537
:1001A0000CF061C0121613066CF537014801062EDB
:1001B00004C096948794779467940A94D2F721E0C8
:1001C00030E040E050E004C0220F331F441F551FB1
:1001D0006A95D2F721503040404050402E213F21B7
:1001E00040235123211531054105510521F021E01E
:1001F00030E040E050E079018A01E628F72808293C
:1002000019293CC0232BD1F1260E371E350146019A
:10021000062E04C096948794779467940A94D2F734
:1002200021E030E040E050E004C0220F331F441FC3
:10023000551F6A95D2F721503040404050402A2146
:100240003B214C215D21211531054105510521F04E
:1002500021E030E040E050E059016A01A628B728CB
:10026000C828D9280BC0821593052CF01C01AA249C
:10027000BB24650103C0EE24FF24870111969C91E5
:10028000D20111968C91981709F445C0992339F041
:10029000A80197012A193B094C095D0906C0A6016E
:1002A00095012E193F09400B510B57FD08C01182D3
:1002B0003382228224833583468357831DC081E0A5
:1002C00081833382228288279927DC01821B930B4A
:1002D000A40BB50B84839583A683B7830DC0220F2F
:1002E000331F441F551F24833583468357838281E0
:1002F000938101979383828324813581468157813D
:10030000DA01C9010197A109B1098F5F9F4FAF4F72
:10031000BF4328F30BC0918333822282EA0CFB1C7B
:100320000C1D1D1DE482F5820683178383E0808304
:10033000248135814681578157FF1AC0C901AA27F8
:1003400097FDA095BA2F81709070A070B0705695EF
:10035000479537952795822B932BA42BB52B848318
:100360009583A683B7838281938101969383828349
:10037000DF0101C0D201CD01CDB7DEB7E2E10C94BF
:10038000CF0FA0E2B0E0E7ECF1E00C94BF0F69837F
:100390007A838B839C832D833E834F835887E9E048
:1003A000EE2EF12CEC0EFD1ECE010196B7010E943F
:1003B000D2048E010F5E1F4FCE010596B8010E9438
:1003C000D2048A8991E089278A8BC701B801AE01DE
:1003D000475E5F4F0E9475000E94FD03A096E6E015
:1003E0000C94DB0FA0E2B0E0E8EFF1E00C94BF0F5B
:1003F00069837A838B839C832D833E834F835887C5
:10040000F9E0EF2EF12CEC0EFD1ECE010196B701A6
:100410000E94D2048E010F5E1F4FCE010596B801D7
:100420000E94D204C701B801AE01475E5F4F0E942F
:1004300075000E94FD03A096E6E00C94DB0FA0E29D
:10044000B0E0E5E2F2E00C94B30F69837A838B832A
:100450009C832D833E834F835887CE010196BE0136
:10046000675F7F4F0E94D204CE010596BE016F5E8A
:100470007F4F0E94D2049985923088F0898982301A
:10048000C8F0943019F4823051F404C0843029F457
:10049000923081F48AE990E0C6C0923049F420E0BD
:1004A0009A858A89981321E02A87CE010996BBC0D4
:1004B000823049F420E09A858A89981321E02A8BBA
:1004C000CE014196B0C02D843E844F8458886D88FB
:1004D0007E888F88988CEE24FF248701AA24BB2471
:1004E000650140E050E060E070E0E0E0F0E0C10174
:1004F00081709070892BE9F0E60CF71C081D191D1E
:100500009A01AB012A0D3B1D4C1D5D1D80E090E062
:10051000A0E0B0E0E614F7040805190520F481E036
:1005200090E0A0E0B0E0BA01A901480F591F6A1F8E
:100530007B1FAA0CBB1CCC1CDD1C97FE08C081E0F5
:1005400090E0A0E0B0E0A82AB92ACA2ADB2A3196B6
:10055000E032F10549F0660C771C881C991C569412
:10056000479437942794C3CFFA85EA892B893C892D
:100570008B859C85280F391F2E5F3F4F17C0CA01FE
:1005800081709070892B61F016950795F794E79428
:1005900080E090E0A0E0B0E8E82AF92A0A2B1B2BC3
:1005A00076956795579547952F5F3F4F77FDE7CF36
:1005B0000CC0440F551F661F771F17FD4160EE0CDE
:1005C000FF1C001F111F21503040403090E05907A0
:1005D00090E0690790E4790760F32B8F3C8FDB0193
:1005E000CA018F779070A070B07080349105A1051A
:1005F000B10561F447FD0AC0E114F10401051105DC
:1006000029F0405C5F4F6F4F7F4F40781A8EFE1786
:1006100011F081E08A8F4D8F5E8F6F8F78A383E01A
:10062000898FCE0149960E94FD03A096E2E10C94C9
:10063000CF0FA8E1B0E0EFE1F3E00C94BF0F6983C6
:100640007A838B839C832D833E834F83588789E0F5
:10065000E82EF12CEC0EFD1ECE010196B7010E9492
:10066000D2048E010F5E1F4FCE010596B8010E9485
:10067000D2048985823040F08989823028F0C70110
:10068000B8010E944A0501C08FEF6896E6E00C941D
:10069000DB0FA8E1B0E0EFE4F3E00C94BF0F698357
:1006A0007A838B839C832D833E834F83588789E095
:1006B000E82EF12CEC0EFD1ECE010196B7010E9432
:1006C000D2048E010F5E1F4FCE010596B8010E9425
:1006D000D2048985823040F08989823028F0C701B0
:1006E000B8010E944A0501C08FEF6896E6E00C94BD
:1006F000DB0FA8E1B0E0EFE7F3E00C94BF0F6983F4
:100700007A838B839C832D833E834F83588789E034
:10071000E82EF12CEC0EFD1ECE010196B7010E94D1
:10072000D2048E010F5E1F4FCE010596B8010E94C4
:10073000D2048985823040F08989823028F0C7014F
:10074000B8010E944A0501C081E06896E6E00C9479
:10075000DB0FACE0B0E0EFEAF3E00C94C30F698389
:100760007A838B839C83CE010196BE016B5F7F4FA2
:100770000E94D2048D81823061F1823050F1843048
:1007800021F48E81882351F12EC02F81388537FDC9
:1007900020C06E812F3131051CF06623F9F023C093
:1007A0008EE190E0821B930B29853A854B855C8511
:1007B00004C056954795379527958A95D2F76623B5
:1007C000B1F050954095309521953F4F4F4F5F4F79
:1007D0000EC020E030E040E050E009C02FEF3FEFD6
:1007E0004FEF5FE704C020E030E040E050E8B9019F
:1007F000CA012C96E2E00C94DF0FDF92EF92FF9299
:100800000F931F93FC01E480F58006811781D1804E
:100810008081823048F480E090E0A0E1B0E0E82AF6
:10082000F92A0A2B1B2BA5C0843009F49FC0823003
:1008300021F4EE24FF24870105C0E114F104010531
:10084000110519F4E0E0F0E096C0628173819FEF3A
:10085000623879070CF05BC022E83FEF261B370BAC
:100860002A3131052CF020E030E040E050E02AC091
:10087000B801A701022E04C0769567955795479554
:100880000A94D2F781E090E0A0E0B0E004C0880FC5
:10089000991FAA1FBB1F2A95D2F70197A109B10979
:1008A0008E219F21A023B1230097A105B10521F03E
:1008B00081E090E0A0E0B0E09A01AB01282B392B59
:1008C0004A2B5B2BDA01C9018F779070A070B07052
:1008D00080349105A105B10539F427FF09C0205CDA
:1008E0003F4F4F4F5F4F04C0215C3F4F4F4F5F4F13
:1008F000E0E0F0E02030A0E03A07A0E04A07A0E402
:100900005A0710F0E1E0F0E079018A0127C0603871
:10091000710564F5FB01E158FF4FD801C7018F77DE
:100920009070A070B07080349105A105B10539F4C4
:10093000E7FE0DC080E490E0A0E0B0E004C08FE3EB
:1009400090E0A0E0B0E0E80EF91E0A1F1B1F17FFA1
:1009500005C016950795F794E794319687E01695AC
:100960000795F794E7948A95D1F705C0EE24FF2404
:100970008701EFEFF0E06E2F679566276795902F60
:100980009F77D794DD24D7948E2F8695492F462BB9
:10099000582F5D29B701CA011F910F91FF90EF9069
:1009A000DF900895FC01DB01408151812281622F9B
:1009B0006F7770E0221F2227221F9381892F880FD3
:1009C000822B282F30E0991F9927991F11969C930D
:1009D000119721153105A9F54115510561057105DD
:1009E00011F482E037C082E89FEF13969C938E93B8
:1009F00012979A01AB0167E0220F331F441F551F66
:100A00006A95D1F783E08C930DC0220F331F441FEA
:100A1000551F12968D919C911397019713969C9355
:100A20008E931297203080E0380780E0480780E4FA
:100A3000580758F314962D933D934D935C93179755
:100A400008952F3F310579F4411551056105710570
:100A500019F484E08C93089564FF03C081E08C93C3
:100A600012C01C9210C02F57304013963C932E9307
:100A7000129783E08C9387E0440F551F661F771F02
:100A80008A95D1F7706414964D935D936D937C9322
:100A9000179708951F93DC01FB019C91923008F495
:100AA00047C08081823008F443C0943051F41196DD
:100AB0001C91843099F58181682F70E0611B710968
:100AC0003FC0843021F0923031F48230B9F181811D
:100AD000882389F12DC011961C9111978230F1F075
:100AE00081811817D9F412962D913C911397828128
:100AF00093818217930794F028173907BCF0149656
:100B00008D919D910D90BC91A02D248135814681C0
:100B10005781281739074A075B0718F4112341F05A
:100B20000AC082179307A407B50740F4112319F0F0
:100B300061E070E005C06FEF7FEF02C060E070E041
:100B4000CB011F910895DF93CF93CDB7DEB7A19767
:100B50000FB6F894DEBF0FBECDBFEAE3F0E080EF42
:100B60008083EBE3F0E08FEF8083ABE3B0E0EBE377
:100B7000F0E080818F708C930000E9E3F0E08081E9
:100B80008F708093B4008091B4008F3071F780E053
:100B900090E0A0EAB1E4898F9A8FAB8FBC8F698D0A
:100BA0007A8D8B8D9C8D20E030E04AE753E40E94E3
:100BB0001F02DC01CB018D8B9E8BAF8BB88F6D89B3
:100BC0007E898F89988D20E030E040E85FE30E94C5
:100BD000790388232CF481E090E09C8B8B8B3FC0C1
:100BE0006D897E898F89988D20E03FEF4FE757E42C
:100BF0000E94190318164CF5698D7A8D8B8D9C8D8A
:100C000020E030E040E251E40E941F02DC01CB0111
:100C1000BC01CD010E944900DC01CB019C8B8B8B78
:100C20000FC089E190E09A8B898B89899A89019715
:100C3000F1F79A8B898B8B899C8901979C8B8B8B85
:100C40008B899C89009769F714C06D897E898F898B
:100C5000988D0E944900DC01CB019C8B8B8B8B898A
:100C60009C89988B8F878F8598890197F1F7988B4E
:100C70008F87E9E3F0E080818F708093B4008091EA
:100C8000B4008F3009F483CF80E090E0A0E2B2E4BA
:100C90008B879C87AD87BE876B857C858D859E8580
:100CA00020E030E04AE753E40E941F02DC01CB0160
:100CB0008F839887A987BA876F81788589859A8578
:100CC00020E030E040E85FE30E94790388232CF4C1
:100CD00081E090E09E838D833FC06F817885898518
:100CE0009A8520E03FEF4FE757E40E94190318165A
:100CF0004CF56B857C858D859E8520E030E040E25B
:100D000051E40E941F02DC01CB01BC01CD010E9415
:100D10004900DC01CB019E838D830FC089E190E007
:100D20009C838B838B819C810197F1F79C838B83C0
:100D30008D819E8101979E838D838D819E810097F9
:100D400069F714C06F81788589859A850E9449006A
:100D5000DC01CB019E838D838D819E819A83898363
:100D600089819A810197F1F79A838983E9E3F0E019
:100D700080818F708093B4008091B4008F3009F42B
:100D800006CFEBE3F0E08FEE80830000E9E3F0E0D4
:100D900080818F708093B4008091B4008F3019F0FF
:100DA0001092B50039C0EBE3F0E08FED80830000D6
:100DB000E9E3F0E080818F708093B4008091B4000B
:100DC0008F3021F081E08093B50026C0EBE3F0E0A6
:100DD0008FEB80830000E9E3F0E080818F708093E7
:100DE000B4008091B4008F3021F082E08093B50090
:100DF00013C0EBE3F0E08FE780830000E9E3F0E06D
:100E000080818F708093B4008091B4008F3009F49A
:100E1000ACCE83E08093B5008091B4008E3071F445
:100E20008091B500882F90E0880F991F880F991F37
:100E3000FC01EE55FF4F808189A332C08091B40040
:100E40008D3071F48091B500882F90E0880F991F44
:100E5000880F991FFC01ED55FF4F808189A320C0A9
:100E60008091B4008B3079F48091B500882F90E0A8
:100E7000880F991F0196880F991FFC01EE55FF4FAF
:100E8000808189A30DC08091B500882F90E0880FE4
:100E9000991F880F991FFC01EB55FF4F808189A393
:100EA00089A1A1960FB6F894DEBF0FBECDBFCF913A
:100EB000DF910895DF93CF93CDB7DEB7A4E3B0E021
:100EC000E4E3F0E0808180628C93A4E3B0E0E4E3AB
:100ED000F0E0808180648C93A4E3B0E0E4E3F0E090
:100EE000808180688C93E1E3F0E08FEF808388E37A
:100EF0000E9483078CE00E94830781E00E948307A1
:100F0000CF91DF910895DF93CF93CDB7DEB7AB9745
:100F10000FB6F894DEBF0FBECDBF8BA7A5E3B0E040
:100F2000E5E3F0E080818F7D8C93A5E3B0E0E5E31D
:100F3000F0E080818F7B8C93A5E3B0E0E5E3F0E007
:100F4000808180688C9380E090E0A0E8BFE38FA36D
:100F500098A7A9A7BAA76FA178A589A59AA520E007
:100F600030E04AE753E40E941F02DC01CB018BA36F
:100F70009CA3ADA3BEA36BA17CA18DA19EA120E0EB
:100F800030E040E85FE30E94790388232CF481E09D
:100F900090E09AA389A33FC06BA17CA18DA19EA1E3
:100FA00020E03FEF4FE757E40E94190318164CF575
:100FB0006FA178A589A59AA520E030E040E251E430
:100FC0000E941F02DC01CB01BC01CD010E9449003F
:100FD000DC01CB019AA389A30FC089E190E098A31B
:100FE0008F8F8F8D98A10197F1F798A38F8F89A18B
:100FF0009AA101979AA389A389A19AA1009769F759
:1010000014C06BA17CA18DA19EA10E944900DC01AE
:10101000CB019AA389A389A19AA19E8F8D8F8D8DD3
:101020009E8D0197F1F79E8F8D8FE2E3F0E08BA507
:10103000808380E090E0A0E8BFE3898F9A8FAB8F38
:10104000BC8F698D7A8D8B8D9C8D20E030E04AE7D6
:1010500053E40E941F02DC01CB018D8B9E8BAF8B72
:10106000B88F6D897E898F89988D20E030E040E8C7
:101070005FE30E94790388232CF481E090E09C8B4D
:101080008B8B3FC06D897E898F89988D20E03FEFE3
:101090004FE757E40E94190318164CF5698D7A8DB5
:1010A0008B8D9C8D20E030E040E251E40E941F02D5
:1010B000DC01CB01BC01CD010E944900DC01CB0168
:1010C0009C8B8B8B0FC089E190E09A8B898B8989EF
:1010D0009A890197F1F79A8B898B8B899C89019763
:1010E0009C8B8B8B8B899C89009769F714C06D89C9
:1010F0007E898F89988D0E944900DC01CB019C8BF1
:101100008B8B8B899C89988B8F878F85988901978A
:10111000F1F7988B8F87A5E3B0E0E5E3F0E08081FD
:101120008F778C9380E090E0A0E8BFE38B879C876B
:10113000AD87BE876B857C858D859E8520E030E000
:101140004AE753E40E941F02DC01CB018F8398879A
:10115000A987BA876F81788589859A8520E030E0F4
:1011600040E85FE30E94790388232CF481E090E05B
:101170009E838D833FC06F81788589859A8520E025
:101180003FEF4FE757E40E94190318164CF56B85A3
:101190007C858D859E8520E030E040E251E40E9410
:1011A0001F02DC01CB01BC01CD010E944900DC0122
:1011B000CB019E838D830FC089E190E09C838B835C
:1011C0008B819C810197F1F79C838B838D819E811C
:1011D00001979E838D838D819E81009769F714C04E
:1011E0006F81788589859A850E944900DC01CB0151
:1011F0009E838D838D819E819A83898389819A8143
:101200000197F1F79A838983AB960FB6F894DEBF06
:101210000FBECDBFCF91DF910895DF93CF93CDB7B0
:10122000DEB7AC970FB6F894DEBF0FBECDBF9CA75C
:101230008BA7A5E3B0E0E5E3F0E0808180628C93CA
:10124000A5E3B0E0E5E3F0E080818F7B8C93A5E33C
:10125000B0E0E5E3F0E0808180688C9380E090E08E
:10126000A0E8BFE38FA398A7A9A7BAA76FA178A505
:1012700089A59AA520E030E04AE753E40E941F02C6
:10128000DC01CB018BA39CA3ADA3BEA36BA17CA16E
:101290008DA19EA120E030E040E85FE30E94790349
:1012A00088232CF481E090E09AA389A33FC06BA12E
:1012B0007CA18DA19EA120E03FEF4FE757E40E9463
:1012C000190318164CF56FA178A589A59AA520E0F9
:1012D00030E040E251E40E941F02DC01CB01BC017E
:1012E000CD010E944900DC01CB019AA389A30FC064
:1012F00089E190E098A38F8F8F8D98A10197F1F7E6
:1013000098A38F8F89A19AA101979AA389A389A1F4
:101310009AA1009769F714C06BA17CA18DA19EA131
:101320000E944900DC01CB019AA389A389A19AA15B
:101330009E8F8D8F8D8D9E8D0197F1F79E8F8D8F56
:10134000E2E3F0E08BA5808380E090E0A0E8BFE3DB
:10135000898F9A8FAB8FBC8F698D7A8D8B8D9C8D89
:1013600020E030E04AE753E40E941F02DC01CB0199
:101370008D8B9E8BAF8BB88F6D897E898F89988D71
:1013800020E030E040E85FE30E94790388232CF4FA
:1013900081E090E09C8B8B8B3FC06D897E898F892B
:1013A000988D20E03FEF4FE757E40E94190318168D
:1013B0004CF5698D7A8D8B8D9C8D20E030E040E27C
:1013C00051E40E941F02DC01CB01BC01CD010E944F
:1013D0004900DC01CB019C8B8B8B0FC089E190E035
:1013E0009A8B898B89899A890197F1F79A8B898BD6
:1013F0008B899C8901979C8B8B8B8B899C8900970F
:1014000069F714C06D897E898F89988D0E94490083
:10141000DC01CB019C8B8B8B8B899C89988B8F8774
:101420008F8598890197F1F7988B8F87A5E3B0E0B6
:10143000E5E3F0E080818F778C9380E090E0A0E896
:10144000BFE38B879C87AD87BE876B857C858D8549
:101450009E8520E030E04AE753E40E941F02DC0151
:10146000CB018F839887A987BA876F817885898513
:101470009A8520E030E040E85FE30E94790388230A
:101480002CF481E090E09E838D833FC06F8178854E
:1014900089859A8520E03FEF4FE757E40E941903C2
:1014A00018164CF56B857C858D859E8520E030E097
:1014B00040E251E40E941F02DC01CB01BC01CD01DE
:1014C0000E944900DC01CB019E838D830FC089E11E
:1014D00090E09C838B838B819C810197F1F79C83A7
:1014E0008B838D819E8101979E838D838D819E81CB
:1014F000009769F714C06F81788589859A850E9465
:101500004900DC01CB019E838D838D819E819A836E
:10151000898389819A810197F1F79A838983AC96AF
:101520000FB6F894DEBF0FBECDBFCF91DF91089507
:10153000DF93CF9300D000D000D0CDB7DEB79A8331
:1015400089837C836B8389819A819E838D838D813E
:101550009E81009731F08D819E818130910531F01F
:101560000AC08B8180680E94830705C08B81805CE4
:1015700080680E94830726960FB6F894DEBF0FBEE0
:10158000CDBFCF91DF910895DF93CF9300D000D0EE
:10159000CDB7DEB79C838B831A82198211C02B8151
:1015A0003C8189819A81F901E80FF91F8081882F98
:1015B00090E00E940D0989819A8101969A8389831E
:1015C0002B813C8189819A81F901E80FF91F808183
:1015D000882329F70F900F900F900F90CF91DF91F4
:1015E0000895DF93CF93CDB7DEB781E00E948307E4
:1015F000CF91DF910895DF93CF93CDB7DEB7EDE2C2
:10160000F0E080E58083A7E3B0E0E7E3F0E08081ED
:1016100080618C93A7E3B0E0E7E3F0E08081806233
:101620008C93A7E3B0E0E7E3F0E080818F7B8C93BD
:10163000A7E3B0E0E7E3F0E0808180688C93CF918E
:10164000DF910895DF93CF93CDB7DEB7A7E3B0E086
:10165000E7E3F0E080818F7E8C93A7E3B0E0E7E3DF
:10166000F0E080818F7D8C93A7E3B0E0E7E3F0E0CA
:10167000808180648C93A7E3B0E0E7E3F0E08081B1
:101680008F778C93EDE2F0E080E48083CF91DF915F
:101690000895DF93CF93CDB7DEB7EFE2F0E08FEFA1
:1016A0008083EEE2F0E080818823DCF7EFE2F0E077
:1016B0008081CF91DF910895DF93CF9300D0CDB794
:1016C000DEB78A83EFE2F0E08A818083EEE2F0E029
:1016D00080818823DCF7EFE2F0E0808189830F903E
:1016E0000F90CF91DF910895DF93CF930F92CDB7F5
:1016F000DEB78983EFE2F0E089818083EEE2F0E0FB
:1017000080818823DCF70F90CF91DF910895DF93DC
:10171000CF93CDB7DEB7EEE2F0E080818823DCF72F
:10172000EFE2F0E08081CF91DF910895DF93CF93D6
:10173000CDB7DEB761970FB6F894DEBF0FBECDBF51
:10174000998B888B1F8680C08F85282F30E08889F1
:101750009989FC01E20FF31F80810E94740B8F8531
:101760008F5F8F8780E090E0A0EFB1E48B879C874C
:10177000AD87BE876B857C858D859E8520E030E0BA
:101780004AE753E40E941F02DC01CB018F83988754
:10179000A987BA876F81788589859A8520E030E0AE
:1017A00040E85FE30E94790388232CF481E090E015
:1017B0009E838D833FC06F81788589859A8520E0DF
:1017C0003FEF4FE757E40E94190318164CF56B855D
:1017D0007C858D859E8520E030E040E251E40E94CA
:1017E0001F02DC01CB01BC01CD010E944900DC01DC
:1017F000CB019E838D830FC089E190E09C838B8316
:101800008B819C810197F1F79C838B838D819E81D5
:1018100001979E838D838D819E81009769F714C007
:101820006F81788589859A850E944900DC01CB010A
:101830009E838D838D819E819A83898389819A81FC
:101840000197F1F79A8389838F85282F30E0888963
:101850009989FC01E20FF31F8081882309F074CF7E
:1018600061960FB6F894DEBF0FBECDBFCF91DF916A
:1018700008950F931F93DF93CF9300D00F92CDB7AE
:10188000DEB79B838A8319828981282F30E08A8181
:101890009B818C01020F131F0E94870BF80180832C
:1018A0000FC089818F5F89838981282F30E08A81E9
:1018B0009B818C01020F131F0E94870BF80180830C
:1018C0008981282F30E08A819B81FC01E20FF31F80
:1018D0008081833231F78981282F30E08A819B8192
:1018E000FC01E20FF31F10820F900F900F90CF9129
:1018F000DF911F910F910895DF93CF93CDB7DEB79E
:1019000062970FB6F894DEBF0FBECDBF998B888B60
:101910006A8B88899989892F990F990B80658F87A0
:101920000E94A40D8F85882F90E00E94F80D888971
:10193000882F90E00E94680E8A89882F90E00E948C
:10194000680E0E94C00E80E090E0A0E2B1E48B87B8
:101950009C87AD87BE876B857C858D859E8520E0C5
:1019600030E04AE753E40E941F02DC01CB018F8381
:101970009887A987BA876F81788589859A8520E0BD
:1019800030E040E85FE30E94790388232CF481E093
:1019900090E09E838D833FC06F81788589859A858D
:1019A00020E03FEF4FE757E40E94190318164CF56B
:1019B0006B857C858D859E8520E030E040E251E49A
:1019C0000E941F02DC01CB01BC01CD010E94490035
:1019D000DC01CB019E838D830FC089E190E09C8365
:1019E0008B838B819C810197F1F79C838B838D8105
:1019F0009E8101979E838D838D819E81009769F7DB
:101A000014C06F81788589859A850E944900DC0120
:101A1000CB019E838D838D819E819A838983898169
:101A20009A810197F1F79A83898362960FB6F894A9
:101A3000DEBF0FBECDBFCF91DF910895DF93CF936F
:101A400000D000D0CDB7DEB79C838B838B819C8187
:101A5000892F990F990B806589830E94A40D898134
:101A6000882F90E00E94F80D8B81882F90E00E94D3
:101A7000680E0E94CE0D8981882F90E00E94300E62
:101A8000CE0102960E94910E0E94C00E8A810F9094
:101A90000F900F900F90CF91DF910895DF93CF9328
:101AA0000F92CDB7DEB78983A6E5B0E0E6E5F0E0BA
:101AB000808180648C93E0E2F0E082E08083A1E2A8
:101AC000B0E0E1E2F0E080818E7F8C93A1E2B0E0B3
:101AD000E1E2F0E080818D7F8C93A6E5B0E0E6E561
:101AE000F0E080818F778C938981882329F0E2E26E
:101AF000F0E08981880F8083A6E5B0E0E6E5F0E0BC
:101B0000808184608C930F90CF91DF910895DF9353
:101B1000CF930F92CDB7DEB78983E2E2F0E08981FF
:101B2000880F8083A6E5B0E0E6E5F0E08081806480
:101B30008C93A6E5B0E0E6E5F0E0808184608C93CC
:101B40000F90CF91DF910895DF93CF930F92CDB790
:101B5000DEB71982A6E5B0E0E6E5F0E080818062BC
:101B60008C93A6E5B0E0E6E5F0E0808180688C9398
:101B7000E6E5F0E080818823DCF7E1E2F0E08081B7
:101B8000882F90E0887F90708830910511F081E077
:101B9000898389810F90CF91DF910895DF93CF934F
:101BA0000F92CDB7DEB71982A6E5B0E0E6E5F0E02A
:101BB000808180628C93A6E5B0E0E6E5F0E080816C
:101BC00080688C93E6E5F0E080818823DCF7E1E231
:101BD000F0E08081882F90E0887F907080319105BF
:101BE00011F082E0898389810F90CF91DF91089570
:101BF000DF93CF9300D0CDB7DEB78A831982E3E2BB
:101C0000F0E08A81880F8083A3E2B0E0E3E2F0E0B5
:101C100080818E7F8C93A6E5B0E0E6E5F0E08081E0
:101C20008F7D8C93A6E5B0E0E6E5F0E080818068EA
:101C30008C93E6E5F0E080818823DCF7E1E2F0E0D8
:101C40008081882F90E0887F90708831910511F015
:101C500083E0898389810F900F90CF91DF91089560
:101C6000DF93CF9300D0CDB7DEB78A831982E3E24A
:101C7000F0E08A81880F8083A3E2B0E0E3E2F0E045
:101C8000808181608C93A6E5B0E0E6E5F0E080819C
:101C90008F7D8C93A6E5B0E0E6E5F0E0808180687A
:101CA0008C93E6E5F0E080818823DCF7E1E2F0E068
:101CB0008081882F90E0887F90708034910511F0AA
:101CC00084E0898389810F900F90CF91DF910895EF
:101CD000DF93CF9300D0CDB7DEB78A831982E3E2DA
:101CE000F0E08A818083A6E5B0E0E6E5F0E080815F
:101CF00080688C93E6E5F0E080818823DCF7E1E200
:101D0000F0E08081882F90E0887F90708832910584
:101D100011F085E0898389810F900F90CF91DF9139
:101D20000895DF93CF9300D00F92CDB7DEB79B839A
:101D30008A831982A6E5B0E0E6E5F0E0808180685C
:101D40008C93E6E5F0E080818823DCF7E1E2F0E0C7
:101D50008081882F90E0887F90708035910519F000
:101D600086E0898306C0E3E2F0E08081EA81FB81BE
:101D7000808389810F900F900F90CF91DF9108950C
:101D8000DF93CF93CDB7DEB7A6E5B0E0E6E5F0E0B0
:101D9000808180618C93A6E5B0E0E6E5F0E080818B
:101DA00080688C93CF91DF910895DF93CF93CDB767
:101DB000DEB72F970FB6F894DEBF0FBECDBF80E021
:101DC0000E944E0D88E690E067E70E947C0C0E941E
:101DD0005A0780E090E0A8E4B3E48B879C87AD8746
:101DE000BE876B857C858D859E8520E030E04AE747
:101DF00053E40E941F02DC01CB018F839887A987DF
:101E0000BA876F81788589859A8520E030E040E83F
:101E10005FE30E94790388232CF481E090E09E83A5
:101E20008D833FC06F81788589859A8520E03FEF5B
:101E30004FE757E40E94190318164CF56B857C8513
:101E40008D859E8520E030E040E251E40E941F0233
:101E5000DC01CB01BC01CD010E944900DC01CB01BA
:101E60009E838D830FC089E190E09C838B838B815F
:101E70009C810197F1F79C838B838D819E810197D3
:101E80009E838D838D819E81009769F714C06F8139
:101E9000788589859A850E944900DC01CB019E8363
:101EA0008D838D819E819A83898389819A8101970F
:101EB000F1F79A8389830E94FB0A80E690E00E94F2
:101EC000C40A81E090E060E070E00E94980A81E737
:101ED00090E00E94C40A8091B200803321F40E94F5
:101EE000A3058093B2008091B200813361F40E9417
:101EF000F10A81E890E00E94C40A83E38093B20073
:101F000081E38093B3008091B200823361F40E9438
:101F1000F10A87E890E00E94C40A83E38093B2004C
:101F200082E38093B3000E94A3058F878091B30062
:101F3000813321F48F850E94740BF5CF8091B3001B
:101F4000823389F78F85853339F08F85863321F089
:101F50008F850E94740BE7CF0E94F10A8CE890E015
:101F60000E94C40AE0CF2F923F924F925F926F92ED
:101F70007F928F929F92AF92BF92CF92DF92EF9219
:101F8000FF920F931F93CF93DF93CDB7DEB7CA1B9A
:101F9000DB0B0FB6F894DEBF0FBECDBF09942A88C5
:101FA000398848885F846E847D848C849B84AA846D
:101FB000B984C884DF80EE80FD800C811B81AA81FA
:101FC000B981CE0FD11D0FB6F894DEBF0FBECDBFC5
:081FD000ED010895F894FFCF24
:101FD800666F722061646D696E206D6F6465203173
:101FE80000666F722075736572206D6F64652032AC
:101FF8000061646D696E00757365720041636365A5
:1020080073732044656E6965640000000000000079
:1020180000003738392F3435362A3132332D203005
:042028003D2B3030EC
:00000001FF
